{
  "contractName": "Factory",
  "abi": [
    {
      "inputs": [
        {
          "internalType": "uint256",
          "name": "",
          "type": "uint256"
        }
      ],
      "name": "historyRooms",
      "outputs": [
        {
          "internalType": "contract HollyRollyPolly",
          "name": "",
          "type": "address"
        }
      ],
      "stateMutability": "view",
      "type": "function"
    },
    {
      "inputs": [
        {
          "internalType": "uint256",
          "name": "",
          "type": "uint256"
        }
      ],
      "name": "rooms",
      "outputs": [
        {
          "internalType": "contract HollyRollyPolly",
          "name": "",
          "type": "address"
        }
      ],
      "stateMutability": "view",
      "type": "function"
    },
    {
      "inputs": [
        {
          "internalType": "uint256",
          "name": "",
          "type": "uint256"
        }
      ],
      "name": "tempRooms",
      "outputs": [
        {
          "internalType": "contract HollyRollyPolly",
          "name": "",
          "type": "address"
        }
      ],
      "stateMutability": "view",
      "type": "function"
    },
    {
      "inputs": [],
      "name": "createRooms",
      "outputs": [],
      "stateMutability": "nonpayable",
      "type": "function"
    },
    {
      "inputs": [
        {
          "internalType": "contract HollyRollyPolly",
          "name": "rm",
          "type": "address"
        }
      ],
      "name": "playerJoinRoom",
      "outputs": [],
      "stateMutability": "nonpayable",
      "type": "function"
    },
    {
      "inputs": [
        {
          "internalType": "contract HollyRollyPolly",
          "name": "rm",
          "type": "address"
        }
      ],
      "name": "closeRoom",
      "outputs": [],
      "stateMutability": "nonpayable",
      "type": "function"
    },
    {
      "inputs": [],
      "name": "dispLobby",
      "outputs": [
        {
          "internalType": "contract HollyRollyPolly[]",
          "name": "hrp",
          "type": "address[]"
        }
      ],
      "stateMutability": "view",
      "type": "function"
    },
    {
      "inputs": [],
      "name": "getTotalRooms",
      "outputs": [
        {
          "internalType": "uint256",
          "name": "",
          "type": "uint256"
        }
      ],
      "stateMutability": "view",
      "type": "function"
    }
  ],
  "bytecode": "0x60806040526002805534801561001457600080fd5b506133a7806100246000396000f3fe608060405234801561001057600080fd5b50600436106100885760003560e01c80634e022c891161005b5780634e022c89146101655780635f8044f8146101c45780636e06169e1461021c578063b63026441461026057610088565b8063053b010b1461008d5780631bae0ac8146100975780632ed5f28a146100ef5780633527b8221461010d575b600080fd5b6100956102a4565b005b6100c3600480360360208110156100ad57600080fd5b8101908080359060200190929190505050610396565b604051808273ffffffffffffffffffffffffffffffffffffffff16815260200191505060405180910390f35b6100f76103d5565b6040518082815260200191505060405180910390f35b6101396004803603602081101561012357600080fd5b81019080803590602001909291905050506103e1565b604051808273ffffffffffffffffffffffffffffffffffffffff16815260200191505060405180910390f35b61016d610420565b6040518080602001828103825283818151815260200191508051906020019060200280838360005b838110156101b0578082015181840152602081019050610195565b505050509050019250505060405180910390f35b6101f0600480360360208110156101da57600080fd5b81019080803590602001909291905050506104ae565b604051808273ffffffffffffffffffffffffffffffffffffffff16815260200191505060405180910390f35b61025e6004803603602081101561023257600080fd5b81019080803573ffffffffffffffffffffffffffffffffffffffff1690602001909291905050506104ed565b005b6102a26004803603602081101561027657600080fd5b81019080803573ffffffffffffffffffffffffffffffffffffffff1690602001909291905050506104f0565b005b60025460008054905010610303576040517f08c379a000000000000000000000000000000000000000000000000000000000815260040180806020018281038252602881526020018061334a6028913960400191505060405180910390fd5b6000604051610311906106ab565b604051809103906000f08015801561032d573d6000803e3d6000fd5b5090506000819080600181540180825580915050600190039060005260206000200160009091909190916101000a81548173ffffffffffffffffffffffffffffffffffffffff021916908373ffffffffffffffffffffffffffffffffffffffff16021790555050565b600081815481106103a657600080fd5b906000526020600020016000915054906101000a900473ffffffffffffffffffffffffffffffffffffffff1681565b60008080549050905090565b600181815481106103f157600080fd5b906000526020600020016000915054906101000a900473ffffffffffffffffffffffffffffffffffffffff1681565b606060008054806020026020016040519081016040528092919081815260200182805480156104a457602002820191906000526020600020905b8160009054906101000a900473ffffffffffffffffffffffffffffffffffffffff1673ffffffffffffffffffffffffffffffffffffffff168152602001906001019080831161045a575b5050505050905090565b600381815481106104be57600080fd5b906000526020600020016000915054906101000a900473ffffffffffffffffffffffffffffffffffffffff1681565b50565b60006001805490501461050c576001600061050b91906106b8565b5b60005b600254811015610694576000818154811061052657fe5b9060005260206000200160009054906101000a900473ffffffffffffffffffffffffffffffffffffffff1673ffffffffffffffffffffffffffffffffffffffff168273ffffffffffffffffffffffffffffffffffffffff1614156105ec576003829080600181540180825580915050600190039060005260206000200160009091909190916101000a81548173ffffffffffffffffffffffffffffffffffffffff021916908373ffffffffffffffffffffffffffffffffffffffff160217905550610687565b6001600082815481106105fb57fe5b9060005260206000200160009054906101000a900473ffffffffffffffffffffffffffffffffffffffff169080600181540180825580915050600190039060005260206000200160009091909190916101000a81548173ffffffffffffffffffffffffffffffffffffffff021916908373ffffffffffffffffffffffffffffffffffffffff1602179055505b808060010191505061050f565b50600160009080546106a79291906106d9565b5050565b612c018061074983390190565b50805460008255906000526020600020908101906106d6919061072b565b50565b82805482825590600052602060002090810192821561071a5760005260206000209182015b828111156107195782548255916001019190600101906106fe565b5b509050610727919061072b565b5090565b5b8082111561074457600081600090555060010161072c565b509056fe608060405260016009556000600a556000600c60006101000a81548160ff0219169083600281111561002d57fe5b021790555034801561003e57600080fd5b50600061004f6100f260201b60201c565b9050806000806101000a81548173ffffffffffffffffffffffffffffffffffffffff021916908373ffffffffffffffffffffffffffffffffffffffff1602179055508073ffffffffffffffffffffffffffffffffffffffff16600073ffffffffffffffffffffffffffffffffffffffff167f8be0079c531659141344cd1fd0a4f28419497f9722a3daafe3b4186f6b6457e060405160405180910390a3506100fa565b600033905090565b612af7806200010a6000396000f3fe6080604052600436106100fe5760003560e01c80638da5cb5b11610095578063b2193bf811610064578063b2193bf81461031d578063d66d9e1914610348578063f29e30a114610352578063f2fde38b1461037d578063fc884bff146103ce576100fe565b80638da5cb5b14610215578063953992c9146102565780639d90199e146102a7578063a2d3b1d6146102b1576100fe565b8063714e9b81116100d1578063714e9b81146101bf578063715018a6146101c95780637ae659e4146101e057806389aba6421461020b576100fe565b80630fd7e8a91461010357806312065fe01461012e578063129874aa146101595780636bf2cc8714610191575b600080fd5b34801561010f57600080fd5b506101186103e5565b6040518082815260200191505060405180910390f35b34801561013a57600080fd5b506101436103f2565b6040518082815260200191505060405180910390f35b61018f6004803603604081101561016f57600080fd5b8101908080359060200190929190803590602001909291905050506103fa565b005b6101bd600480360360208110156101a757600080fd5b81019080803590602001909291905050506109a4565b005b6101c7610c0a565b005b3480156101d557600080fd5b506101de61133e565b005b3480156101ec57600080fd5b506101f56114c4565b6040518082815260200191505060405180910390f35b61021361150e565b005b34801561022157600080fd5b5061022a6117ba565b604051808273ffffffffffffffffffffffffffffffffffffffff16815260200191505060405180910390f35b34801561026257600080fd5b506102a56004803603602081101561027957600080fd5b81019080803573ffffffffffffffffffffffffffffffffffffffff1690602001909291905050506117e3565b005b6102af61195d565b005b3480156102bd57600080fd5b506102c6611c40565b6040518080602001828103825283818151815260200191508051906020019060200280838360005b838110156103095780820151818401526020810190506102ee565b505050509050019250505060405180910390f35b34801561032957600080fd5b50610332611cce565b6040518082815260200191505060405180910390f35b610350611cd8565b005b34801561035e57600080fd5b50610367612080565b6040518082815260200191505060405180910390f35b34801561038957600080fd5b506103cc600480360360208110156103a057600080fd5b81019080803573ffffffffffffffffffffffffffffffffffffffff16906020019092919050505061208d565b005b3480156103da57600080fd5b506103e3612298565b005b6000600380549050905090565b600047905090565b6104026117ba565b73ffffffffffffffffffffffffffffffffffffffff163373ffffffffffffffffffffffffffffffffffffffff161415610486576040517f08c379a00000000000000000000000000000000000000000000000000000000081526004018080602001828103825260278152602001806129a36027913960400191505060405180910390fd5b6000600a5414806104985750600a5482145b6104ed576040517f08c379a000000000000000000000000000000000000000000000000000000000815260040180806020018281038252603981526020018061296a6039913960400191505060405180910390fd5b60008211610563576040517f08c379a00000000000000000000000000000000000000000000000000000000081526004018080602001828103825260178152602001807f4e65656420746f20626574206d6f7265207468616e203000000000000000000081525060200191505060405180910390fd5b600160003373ffffffffffffffffffffffffffffffffffffffff1673ffffffffffffffffffffffffffffffffffffffff16815260200190815260200160002060030160009054906101000a900460ff1615610609576040517f08c379a00000000000000000000000000000000000000000000000000000000081526004018080602001828103825260218152602001806129496021913960400191505060405180910390fd5b81600160003373ffffffffffffffffffffffffffffffffffffffff1673ffffffffffffffffffffffffffffffffffffffff1681526020019081526020016000206000015410156106a4576040517f08c379a00000000000000000000000000000000000000000000000000000000081526004018080602001828103825260368152602001806129ca6036913960400191505060405180910390fd5b600181101580156106b6575060068111155b610728576040517f08c379a000000000000000000000000000000000000000000000000000000000815260040180806020018281038252601b8152602001807f43686f6f73652061206e756d6265722066726f6d203120746f2036000000000081525060200191505060405180910390fd5b6000600a5414156107425781600a8190555042600b819055505b6005339080600181540180825580915050600190039060005260206000200160009091909190916101000a81548173ffffffffffffffffffffffffffffffffffffffff021916908373ffffffffffffffffffffffffffffffffffffffff16021790555081600160003373ffffffffffffffffffffffffffffffffffffffff1673ffffffffffffffffffffffffffffffffffffffff1681526020019081526020016000206001018190555080600160003373ffffffffffffffffffffffffffffffffffffffff1673ffffffffffffffffffffffffffffffffffffffff16815260200190815260200160002060020181905550610848826008546126a190919063ffffffff16565b6008819055506108a382600160003373ffffffffffffffffffffffffffffffffffffffff1673ffffffffffffffffffffffffffffffffffffffff1681526020019081526020016000206000015461272990919063ffffffff16565b600160003373ffffffffffffffffffffffffffffffffffffffff1673ffffffffffffffffffffffffffffffffffffffff1681526020019081526020016000206000018190555060018060003373ffffffffffffffffffffffffffffffffffffffff1673ffffffffffffffffffffffffffffffffffffffff16815260200190815260200160002060030160006101000a81548160ff0219169083151502179055507f92f56d4be21be518d179c102e585cb71890b7f12b3a77e9c2393ecae0834ac3c338383604051808473ffffffffffffffffffffffffffffffffffffffff168152602001838152602001828152602001935050505060405180910390a15050565b60008111610a1a576040517f08c379a00000000000000000000000000000000000000000000000000000000081526004018080602001828103825260208152602001807f4e65656420746f206368616e6765206d6f7265207468616e203120546f6b656e81525060200191505060405180910390fd5b80600160003373ffffffffffffffffffffffffffffffffffffffff1673ffffffffffffffffffffffffffffffffffffffff168152602001908152602001600020600001541015610ab5576040517f08c379a00000000000000000000000000000000000000000000000000000000081526004018080602001828103825260328152602001806129176032913960400191505060405180910390fd5b610b0a81600160003373ffffffffffffffffffffffffffffffffffffffff1673ffffffffffffffffffffffffffffffffffffffff1681526020019081526020016000206000015461272990919063ffffffff16565b600160003373ffffffffffffffffffffffffffffffffffffffff1673ffffffffffffffffffffffffffffffffffffffff168152602001908152602001600020600001819055503373ffffffffffffffffffffffffffffffffffffffff166108fc670de0b6b3a764000083029081150290604051600060405180830381858888f19350505050158015610ba0573d6000803e3d6000fd5b507f95993826bb48cd07c089a6c2c05649a32573eea93cdffc3e423c47a97a1bcf0233670de0b6b3a76400003481610bd457fe5b04604051808373ffffffffffffffffffffffffffffffffffffffff1681526020018281526020019250505060405180910390a150565b610c12612773565b73ffffffffffffffffffffffffffffffffffffffff1660008054906101000a900473ffffffffffffffffffffffffffffffffffffffff1673ffffffffffffffffffffffffffffffffffffffff1614610cd2576040517f08c379a00000000000000000000000000000000000000000000000000000000081526004018080602001828103825260208152602001807f4f776e61626c653a2063616c6c6572206973206e6f7420746865206f776e657281525060200191505060405180910390fd5b60016005805490501015610d4e576040517f08c379a00000000000000000000000000000000000000000000000000000000081526004018080602001828103825260128152602001807f4e6f7420656e6f75676820706c6179657273000000000000000000000000000081525060200191505060405180910390fd5b60006002811115610d5b57fe5b600c60009054906101000a900460ff166002811115610d7657fe5b14610dcc576040517f08c379a0000000000000000000000000000000000000000000000000000000008152600401808060200182810382526041815260200180612a816041913960600191505060405180910390fd5b6001600c60006101000a81548160ff02191690836002811115610deb57fe5b0217905550600060029050600080600090505b600580549050811015610f4a57600060058281548110610e1a57fe5b9060005260206000200160009054906101000a900473ffffffffffffffffffffffffffffffffffffffff16905083600160008373ffffffffffffffffffffffffffffffffffffffff1673ffffffffffffffffffffffffffffffffffffffff168152602001908152602001600020600201541415610f3c576007819080600181540180825580915050600190039060005260206000200160009091909190916101000a81548173ffffffffffffffffffffffffffffffffffffffff021916908373ffffffffffffffffffffffffffffffffffffffff160217905550600160008273ffffffffffffffffffffffffffffffffffffffff1673ffffffffffffffffffffffffffffffffffffffff16815260200190815260200160002060010154830192505b508080600101915050610dfe565b50600060078054905014156110985760005b60038054905081101561109257600060038281548110610f7857fe5b9060005260206000200160009054906101000a900473ffffffffffffffffffffffffffffffffffffffff1690506000600160008373ffffffffffffffffffffffffffffffffffffffff1673ffffffffffffffffffffffffffffffffffffffff168152602001908152602001600020600001541115611084578073ffffffffffffffffffffffffffffffffffffffff166108fc670de0b6b3a7640000600160008573ffffffffffffffffffffffffffffffffffffffff1673ffffffffffffffffffffffffffffffffffffffff16815260200190815260200160002060000154029081150290604051600060405180830381858888f19350505050158015611082573d6000803e3d6000fd5b505b508080600101915050610f5c565b506112fa565b6000600780549050600854816110aa57fe5b04905060005b6007805490508110156111bd576000600782815481106110cc57fe5b9060005260206000200160009054906101000a900473ffffffffffffffffffffffffffffffffffffffff16905061110e8360085461272990919063ffffffff16565b60088190555061116983600160008473ffffffffffffffffffffffffffffffffffffffff1673ffffffffffffffffffffffffffffffffffffffff168152602001908152602001600020600001546126a190919063ffffffff16565b600160008373ffffffffffffffffffffffffffffffffffffffff1673ffffffffffffffffffffffffffffffffffffffff168152602001908152602001600020600001819055505080806001019150506110b0565b5060005b6003805490508110156112f7576000600382815481106111dd57fe5b9060005260206000200160009054906101000a900473ffffffffffffffffffffffffffffffffffffffff1690506000600160008373ffffffffffffffffffffffffffffffffffffffff1673ffffffffffffffffffffffffffffffffffffffff1681526020019081526020016000206000015411156112e9578073ffffffffffffffffffffffffffffffffffffffff166108fc670de0b6b3a7640000600160008573ffffffffffffffffffffffffffffffffffffffff1673ffffffffffffffffffffffffffffffffffffffff16815260200190815260200160002060000154029081150290604051600060405180830381858888f193505050501580156112e7573d6000803e3d6000fd5b505b5080806001019150506111c1565b50505b6002600c60006101000a81548160ff0219169083600281111561131957fe5b02179055506113266117ba565b73ffffffffffffffffffffffffffffffffffffffff16ff5b611346612773565b73ffffffffffffffffffffffffffffffffffffffff1660008054906101000a900473ffffffffffffffffffffffffffffffffffffffff1673ffffffffffffffffffffffffffffffffffffffff1614611406576040517f08c379a00000000000000000000000000000000000000000000000000000000081526004018080602001828103825260208152602001807f4f776e61626c653a2063616c6c6572206973206e6f7420746865206f776e657281525060200191505060405180910390fd5b600073ffffffffffffffffffffffffffffffffffffffff1660008054906101000a900473ffffffffffffffffffffffffffffffffffffffff1673ffffffffffffffffffffffffffffffffffffffff167f8be0079c531659141344cd1fd0a4f28419497f9722a3daafe3b4186f6b6457e060405160405180910390a360008060006101000a81548173ffffffffffffffffffffffffffffffffffffffff021916908373ffffffffffffffffffffffffffffffffffffffff160217905550565b6000600160003373ffffffffffffffffffffffffffffffffffffffff1673ffffffffffffffffffffffffffffffffffffffff16815260200190815260200160002060000154905090565b611516612773565b73ffffffffffffffffffffffffffffffffffffffff1660008054906101000a900473ffffffffffffffffffffffffffffffffffffffff1673ffffffffffffffffffffffffffffffffffffffff16146115d6576040517f08c379a00000000000000000000000000000000000000000000000000000000081526004018080602001828103825260208152602001807f4f776e61626c653a2063616c6c6572206973206e6f7420746865206f776e657281525060200191505060405180910390fd5b610708600b5401421180156115ee57506000600b5414155b611660576040517f08c379a00000000000000000000000000000000000000000000000000000000081526004018080602001828103825260188152602001807f436f6e747261637420686173206e6f742065787069726564000000000000000081525060200191505060405180910390fd5b60005b6003805490508110156117995760006003828154811061167f57fe5b9060005260206000200160009054906101000a900473ffffffffffffffffffffffffffffffffffffffff1690506000600160008373ffffffffffffffffffffffffffffffffffffffff1673ffffffffffffffffffffffffffffffffffffffff16815260200190815260200160002060000154111561178b578073ffffffffffffffffffffffffffffffffffffffff166108fc670de0b6b3a7640000600160008573ffffffffffffffffffffffffffffffffffffffff1673ffffffffffffffffffffffffffffffffffffffff16815260200190815260200160002060000154029081150290604051600060405180830381858888f19350505050158015611789573d6000803e3d6000fd5b505b508080600101915050611663565b506117a26117ba565b73ffffffffffffffffffffffffffffffffffffffff16ff5b60008060009054906101000a900473ffffffffffffffffffffffffffffffffffffffff16905090565b6117eb612773565b73ffffffffffffffffffffffffffffffffffffffff1660008054906101000a900473ffffffffffffffffffffffffffffffffffffffff1673ffffffffffffffffffffffffffffffffffffffff16146118ab576040517f08c379a00000000000000000000000000000000000000000000000000000000081526004018080602001828103825260208152602001807f4f776e61626c653a2063616c6c6572206973206e6f7420746865206f776e657281525060200191505060405180910390fd5b600160008273ffffffffffffffffffffffffffffffffffffffff1673ffffffffffffffffffffffffffffffffffffffff16815260200190815260200160002060030160009054906101000a900460ff1615611951576040517f08c379a000000000000000000000000000000000000000000000000000000000815260040180806020018281038252605c815260200180612a00605c913960600191505060405180910390fd5b61195a8161208d565b50565b670de0b6b3a76400003410156119db576040517f08c379a00000000000000000000000000000000000000000000000000000000081526004018080602001828103825260208152602001807f4e65656420746f206368616e6765206d6f7265207468616e203120457468657281525060200191505060405180910390fd5b670de0b6b3a764000034816119ec57fe5b043373ffffffffffffffffffffffffffffffffffffffff16311015611a5c576040517f08c379a00000000000000000000000000000000000000000000000000000000081526004018080602001828103825260258152602001806128cc6025913960400191505060405180910390fd5b670de0b6b3a76400003481611a6d57fe5b04600160003373ffffffffffffffffffffffffffffffffffffffff1673ffffffffffffffffffffffffffffffffffffffff1681526020019081526020016000206000016000828254019250508190555060001515600260003373ffffffffffffffffffffffffffffffffffffffff1673ffffffffffffffffffffffffffffffffffffffff16815260200190815260200160002060000160009054906101000a900460ff1615151415611bd8576003339080600181540180825580915050600190039060005260206000200160009091909190916101000a81548173ffffffffffffffffffffffffffffffffffffffff021916908373ffffffffffffffffffffffffffffffffffffffff1602179055506001600260003373ffffffffffffffffffffffffffffffffffffffff1673ffffffffffffffffffffffffffffffffffffffff16815260200190815260200160002060000160006101000a81548160ff0219169083151502179055505b7f88def5357fb4c3c9fbd7f52ac01313c65e063fb1aea2298ead054fdebdde02e433670de0b6b3a76400003481611c0b57fe5b04604051808373ffffffffffffffffffffffffffffffffffffffff1681526020018281526020019250505060405180910390a1565b60606005805480602002602001604051908101604052809291908181526020018280548015611cc457602002820191906000526020600020905b8160009054906101000a900473ffffffffffffffffffffffffffffffffffffffff1673ffffffffffffffffffffffffffffffffffffffff1681526020019060010190808311611c7a575b5050505050905090565b6000600854905090565b600060068054905014611cf45760066000611cf3919061283b565b5b600060048054905014611d105760046000611d0f919061283b565b5b611d186117ba565b73ffffffffffffffffffffffffffffffffffffffff163373ffffffffffffffffffffffffffffffffffffffff161415611db9576040517f08c379a00000000000000000000000000000000000000000000000000000000081526004018080602001828103825260208152602001807f546865204f776e65722063616e6e6f74206c6561766520746865206c6f62627981525060200191505060405180910390fd5b60005b600380549050811015611eaa57600060038281548110611dd857fe5b9060005260206000200160009054906101000a900473ffffffffffffffffffffffffffffffffffffffff1690503373ffffffffffffffffffffffffffffffffffffffff168173ffffffffffffffffffffffffffffffffffffffff1614611e9c576004819080600181540180825580915050600190039060005260206000200160009091909190916101000a81548173ffffffffffffffffffffffffffffffffffffffff021916908373ffffffffffffffffffffffffffffffffffffffff1602179055505b508080600101915050611dbc565b5060046003908054611ebd92919061285c565b506000600260003373ffffffffffffffffffffffffffffffffffffffff1673ffffffffffffffffffffffffffffffffffffffff16815260200190815260200160002060000160006101000a81548160ff02191690831515021790555060011515600160003373ffffffffffffffffffffffffffffffffffffffff1673ffffffffffffffffffffffffffffffffffffffff16815260200190815260200160002060030160009054906101000a900460ff1615151415611fda57611f7d612298565b7f28c6d12519acf4bb4eccc5c9bb9be3c79cefe70a69cb40299300fb1de9dee9c9336001604051808373ffffffffffffffffffffffffffffffffffffffff16815260200182151581526020019250505060405180910390a161207e565b612025600160003373ffffffffffffffffffffffffffffffffffffffff1673ffffffffffffffffffffffffffffffffffffffff168152602001908152602001600020600001546109a4565b7f28c6d12519acf4bb4eccc5c9bb9be3c79cefe70a69cb40299300fb1de9dee9c9336000604051808373ffffffffffffffffffffffffffffffffffffffff16815260200182151581526020019250505060405180910390a15b565b6000600580549050905090565b612095612773565b73ffffffffffffffffffffffffffffffffffffffff1660008054906101000a900473ffffffffffffffffffffffffffffffffffffffff1673ffffffffffffffffffffffffffffffffffffffff1614612155576040517f08c379a00000000000000000000000000000000000000000000000000000000081526004018080602001828103825260208152602001807f4f776e61626c653a2063616c6c6572206973206e6f7420746865206f776e657281525060200191505060405180910390fd5b600073ffffffffffffffffffffffffffffffffffffffff168173ffffffffffffffffffffffffffffffffffffffff1614156121db576040517f08c379a00000000000000000000000000000000000000000000000000000000081526004018080602001828103825260268152602001806128f16026913960400191505060405180910390fd5b8073ffffffffffffffffffffffffffffffffffffffff1660008054906101000a900473ffffffffffffffffffffffffffffffffffffffff1673ffffffffffffffffffffffffffffffffffffffff167f8be0079c531659141344cd1fd0a4f28419497f9722a3daafe3b4186f6b6457e060405160405180910390a3806000806101000a81548173ffffffffffffffffffffffffffffffffffffffff021916908373ffffffffffffffffffffffffffffffffffffffff16021790555050565b6000600680549050146122b457600660006122b3919061283b565b5b6000600480549050146122d057600460006122cf919061283b565b5b600160003373ffffffffffffffffffffffffffffffffffffffff1673ffffffffffffffffffffffffffffffffffffffff16815260200190815260200160002060030160009054906101000a900460ff16612375576040517f08c379a0000000000000000000000000000000000000000000000000000000008152600401808060200182810382526025815260200180612a5c6025913960400191505060405180910390fd5b6123cc600160003373ffffffffffffffffffffffffffffffffffffffff1673ffffffffffffffffffffffffffffffffffffffff1681526020019081526020016000206001015460085461272990919063ffffffff16565b600881905550612469600160003373ffffffffffffffffffffffffffffffffffffffff1673ffffffffffffffffffffffffffffffffffffffff16815260200190815260200160002060010154600160003373ffffffffffffffffffffffffffffffffffffffff1673ffffffffffffffffffffffffffffffffffffffff168152602001908152602001600020600001546126a190919063ffffffff16565b600160003373ffffffffffffffffffffffffffffffffffffffff1673ffffffffffffffffffffffffffffffffffffffff168152602001908152602001600020600001819055506000600160003373ffffffffffffffffffffffffffffffffffffffff1673ffffffffffffffffffffffffffffffffffffffff168152602001908152602001600020600101819055506000600160003373ffffffffffffffffffffffffffffffffffffffff1673ffffffffffffffffffffffffffffffffffffffff168152602001908152602001600020600201819055506000600160003373ffffffffffffffffffffffffffffffffffffffff1673ffffffffffffffffffffffffffffffffffffffff16815260200190815260200160002060030160006101000a81548160ff02191690831515021790555060005b60058054905081101561268b576000600582815481106125b957fe5b9060005260206000200160009054906101000a900473ffffffffffffffffffffffffffffffffffffffff1690503373ffffffffffffffffffffffffffffffffffffffff168173ffffffffffffffffffffffffffffffffffffffff161461267d576006819080600181540180825580915050600190039060005260206000200160009091909190916101000a81548173ffffffffffffffffffffffffffffffffffffffff021916908373ffffffffffffffffffffffffffffffffffffffff1602179055505b50808060010191505061259d565b506006600590805461269e92919061285c565b50565b60008082840190508381101561271f576040517f08c379a000000000000000000000000000000000000000000000000000000000815260040180806020018281038252601b8152602001807f536166654d6174683a206164646974696f6e206f766572666c6f77000000000081525060200191505060405180910390fd5b8091505092915050565b600061276b83836040518060400160405280601e81526020017f536166654d6174683a207375627472616374696f6e206f766572666c6f77000081525061277b565b905092915050565b600033905090565b6000838311158290612828576040517f08c379a00000000000000000000000000000000000000000000000000000000081526004018080602001828103825283818151815260200191508051906020019080838360005b838110156127ed5780820151818401526020810190506127d2565b50505050905090810190601f16801561281a5780820380516001836020036101000a031916815260200191505b509250505060405180910390fd5b5060008385039050809150509392505050565b508054600082559060005260206000209081019061285991906128ae565b50565b82805482825590600052602060002090810192821561289d5760005260206000209182015b8281111561289c578254825591600101919060010190612881565b5b5090506128aa91906128ae565b5090565b5b808211156128c75760008160009055506001016128af565b509056fe4e6f7420656e6f7567682066756e647320746f20636f6e7665727420746f20546f6b656e734f776e61626c653a206e6577206f776e657220697320746865207a65726f2061646472657373596f752063616e6e6f74206368616e6765206f7574206d6f726520746f6b656e73207468616e20796f7520706f7373657373506c6179657220697320616c726561647920696e73696465207468652067616d65506c656173652062657420746f6b656e73206163636f7264696e6720746f207468652062657420616c6c6f636174656420746f20726f6f6d2e526f6f6d206f776e65722063616e6e6f7420706172746963697061746520696e2061206265742e596f75206861766520626574206d6f726520746f6b656e73207468616e20796f75206861766520696e20796f7572206163636f756e74546865206e6577206f776e65722063616e6e6f7420706172746963697061746520696e2d67616d652e20456e737572652074686174206265742069732072656d6f766564206265666f726520737769746368696e67206f776e65722e43616e6e6f742072656d6f7665206265742069662075736572206e6f7420696e2067616d6547616d652069732065697468657220696e2070726f6772657373206f722068617320656e6465642e20506c656173652073746172742061206e65772067616d652ea26469706673582212200836de1a6f69c07bd9ea875e284a155640038e68a3af5fb22cf6a6a5f84e0ac664736f6c634300070600334d6178696d756d20436170616369747920726561636865642e20506c6561736520776169742e2e2ea2646970667358221220dfaf14bbb30679c70f7bfd586286dce39fe3719d26e0dbbe53db68d573d31d6a64736f6c63430007060033",
  "immutableReferences": {},
  "source": "pragma solidity ^0.7.5;\r\n\r\nimport \"./SafeMath.sol\";\r\nimport \"./Ownable.sol\";\r\n\r\n//Basic Contract Room creation + Limit seems to be working. Pending implementation for playerJoinRoom...\r\ncontract Factory{\r\n    HollyRollyPolly [] public rooms; //Using pointers\r\n    HollyRollyPolly [] public tempRooms; //Used as temporary storage for closing rooms. \r\n    uint maxFacLimit = 2;\r\n    HollyRollyPolly [] public historyRooms; //Rooms that are self-destructed.\r\n    \r\n    struct PlayerInfo{\r\n        bool inRoom;\r\n    }\r\n    \r\n    modifier clearTempList{\r\n        if(tempRooms.length!=0){\r\n            delete tempRooms;\r\n        }\r\n        _;\r\n    }\r\n    \r\n    function createRooms()public{\r\n        require(rooms.length < maxFacLimit, \"Maximum Capacity reached. Please wait...\");\r\n        HollyRollyPolly newRm = new HollyRollyPolly();\r\n        rooms.push(newRm);\r\n    }\r\n    \r\n    //Not sure for this to put in procedure of HRP \r\n    function playerJoinRoom(HollyRollyPolly rm) public{\r\n        \r\n    }\r\n    \r\n    //Close room.\r\n    function closeRoom(HollyRollyPolly rm)public clearTempList{ //Runs in O(n) time. \r\n        for(uint i = 0; i < maxFacLimit; i++){\r\n            if(rm == rooms[i]){\r\n                historyRooms.push(rm);\r\n                continue; //Skip this because this is going to be stored in history. \r\n            } else{\r\n                tempRooms.push(rooms[i]);\r\n            }\r\n        }\r\n        rooms = tempRooms; //Overwrite existing rooms with temp rooms. \r\n    }\r\n    \r\n    //Display all available rooms in lobby.\r\n    function dispLobby() public view returns(HollyRollyPolly [] memory hrp){\r\n        return rooms;\r\n    } \r\n    \r\n    //Display total number of existing rooms.     \r\n    function getTotalRooms() public view returns (uint){\r\n        return rooms.length;\r\n    }\r\n    \r\n}\r\n\r\ncontract Tokencreation is Ownable{\r\n    using SafeMath for uint;\r\n    \r\n    struct Player{\r\n        uint totaltokens;\r\n        uint bettokens;\r\n        uint selectednr; \r\n        bool userparticipate;\r\n    }\r\n    \r\n    struct Change{\r\n        bool isChanged;\r\n    }\r\n    mapping(address => Player) playerinfo;\r\n    mapping(address => Change) changes;\r\n    \r\n    \r\n    address payable[] globallist;\r\n    address payable[] temp_globallist;\r\n    \r\n    event changeEthertoToken(address account, uint amount);\r\n    event changeTokentoEther(address account, uint amount);\r\n    \r\n    function EthertoToken() public payable{\r\n        require (msg.value>=1 ether, \"Need to change more than 1 Ether\");\r\n        require (msg.sender.balance>= msg.value/1 ether,\"Not enough funds to convert to Tokens\");\r\n        playerinfo[msg.sender].totaltokens+=msg.value/1 ether;\r\n        if(changes[msg.sender].isChanged == false){\r\n            globallist.push(msg.sender);\r\n            changes[msg.sender].isChanged = true;\r\n        }\r\n        emit changeEthertoToken(msg.sender, msg.value/1 ether);\r\n    }\r\n    \r\n    function TokentoEther(uint _xchangetokens) public payable{\r\n        require (_xchangetokens>0, \"Need to change more than 1 Token\");\r\n        require (playerinfo[msg.sender].totaltokens>= _xchangetokens,\"You cannot change out more tokens than you possess\");\r\n        playerinfo[msg.sender].totaltokens=playerinfo[msg.sender].totaltokens.sub(_xchangetokens);\r\n        msg.sender.transfer(_xchangetokens*1 ether);\r\n        emit changeTokentoEther(msg.sender, msg.value/1 ether);\r\n    }    \r\n    \r\n    function Playertokens() public view returns (uint){\r\n        return playerinfo[msg.sender].totaltokens;\r\n    }\r\n    \r\n      \r\n    function getBalance() public view returns (uint){\r\n        return address(this).balance;\r\n    }\r\n    \r\n    \r\n    function checklength() public view returns (uint){\r\n        return globallist.length;\r\n    }\r\n\r\n}\r\n\r\n\r\n\r\n//Each contract will represent a gameplay instance. \r\ncontract HollyRollyPolly is Tokencreation{\r\n    using SafeMath for uint;\r\n    \r\n    \r\n    enum GameState{NOTSTARTED, INPROGRESS, ENDED}\r\n    //address payable owner;\r\n    address payable[] playerlist;\r\n    address payable[] temp_playerlist;\r\n    address payable[] winnerlist;\r\n    uint tokenpot;\r\n    uint counter=1;\r\n    uint betFixed = 0;\r\n    uint startTime;\r\n    GameState state = GameState.NOTSTARTED;\r\n    \r\n    // constructor(address newOwner) public{\r\n    //     owner = newOwner;\r\n    // }\r\n    \r\n    event randomStart();\r\n    event playerParticipate(address player, uint betAmount, uint guessNumber);\r\n    event distributeWinnings(address player, uint winnings);\r\n    event earnings(address player, uint winnings);\r\n    event playerLeft(address player, bool participate);\r\n    \r\n    modifier tempListClear(){\r\n        if(temp_playerlist.length!=0){\r\n            delete temp_playerlist;\r\n        }\r\n        if(temp_globallist.length!=0){\r\n            delete temp_globallist;\r\n        }\r\n        _;\r\n    }\r\n    \r\n    function rndGenerate(uint mod) internal returns(uint){\r\n        counter++; //Cannot be view since we are modifying sth in the function.\r\n        emit randomStart();\r\n        return uint(keccak256(abi.encodePacked(counter, block.timestamp, block.difficulty, msg.sender))) % mod;\r\n    }\r\n    \r\n    function changeRmOwner(address newOwner) public onlyOwner{\r\n        require(!playerinfo[payable(newOwner)].userparticipate, \"The new owner cannot participate in-game. Ensure that bet is removed before switching owner.\");\r\n        transferOwnership(newOwner);\r\n    }\r\n    \r\n    function removeBet() public tempListClear{\r\n        require(playerinfo[msg.sender].userparticipate,\"Cannot remove bet if user not in game\");\r\n        tokenpot = tokenpot.sub(playerinfo[msg.sender].bettokens);\r\n        playerinfo[msg.sender].totaltokens=playerinfo[msg.sender].totaltokens.add(playerinfo[msg.sender].bettokens);\r\n        playerinfo[msg.sender].bettokens = 0;\r\n        playerinfo[msg.sender].selectednr= 0;\r\n        playerinfo[msg.sender].userparticipate=false;\r\n        for (uint i=0; i<playerlist.length; i++){\r\n            address payable userAddress=playerlist[i];\r\n            if (userAddress!=msg.sender){\r\n                temp_playerlist.push(userAddress);  \r\n            }\r\n        }\r\n        playerlist=temp_playerlist;\r\n    }\r\n    \r\n    //Banker is not inclusive of no. of players. They either win all of players bet or win nth. \r\n    function participate(uint _nroftokens, uint _numselected) public payable {\r\n        require(msg.sender != owner(), \"Room owner cannot participate in a bet.\");\r\n        require(betFixed == 0 || _nroftokens == betFixed, \"Please bet tokens according to the bet allocated to room.\");\r\n        require(_nroftokens>0,\"Need to bet more than 0\");\r\n        require(!playerinfo[msg.sender].userparticipate,\"Player is already inside the game\");\r\n        require(playerinfo[msg.sender].totaltokens>= _nroftokens,\"You have bet more tokens than you have in your account\");\r\n        require(_numselected>=1 && _numselected<=6,\"Choose a number from 1 to 6\");\r\n        if(betFixed == 0){ //Set the base template bet of the room.\r\n            betFixed = _nroftokens;\r\n            startTime=block.timestamp;\r\n        }\r\n        playerlist.push(msg.sender);\r\n        playerinfo[msg.sender].bettokens=_nroftokens;\r\n        playerinfo[msg.sender].selectednr=_numselected;\r\n        tokenpot=tokenpot.add(_nroftokens);\r\n        playerinfo[msg.sender].totaltokens=playerinfo[msg.sender].totaltokens.sub(_nroftokens);\r\n        playerinfo[msg.sender].userparticipate=true;\r\n        emit playerParticipate(msg.sender, _nroftokens, _numselected);\r\n    }\r\n    \r\n    function leave() public payable tempListClear{\r\n        require(msg.sender!=owner(),\"The Owner cannot leave the lobby\");\r\n\r\n       //Common code whether in game or not in game \r\n        //remove from globallist (using a crude for loop method because pop functionality in solidity cannot pop specified element)\r\n        for (uint j=0; j<globallist.length; j++){\r\n            address payable userAddress=globallist[j];\r\n            if (userAddress!=msg.sender){\r\n            temp_globallist.push(userAddress);  \r\n            }\r\n        }\r\n        globallist=temp_globallist;\r\n        //isChanged part fix\r\n        changes[msg.sender].isChanged = false;\r\n        \r\n        //User already inside the game \r\n       if (playerinfo[msg.sender].userparticipate==true){\r\n        removeBet();\r\n        emit playerLeft(msg.sender,true); \r\n       }\r\n       \r\n       //User not in game\r\n       else{\r\n         TokentoEther(playerinfo[msg.sender].totaltokens);\r\n         emit playerLeft(msg.sender,false); \r\n       }\r\n        \r\n        \r\n    }\r\n    \r\n    function numberofplayers() public view returns (uint){\r\n        return playerlist.length;\r\n    }\r\n    \r\n    //Gives the addressess of the participants (fyi NOT globallist) \r\n    function displayPlayerList() public view returns (address payable[] memory){\r\n        return playerlist;\r\n    }\r\n    \r\n    //function check() public view returns(uint){\r\n        //return playerinfo[msg.sender].bettokens;\r\n    //}\r\n    \r\n    function potsize() public view returns (uint){\r\n        return tokenpot;\r\n    }\r\n    \r\n    //Only owner can start the game...\r\n    function gameplay() public payable onlyOwner{\r\n        //remember to change settings, currently set for debugging purposes \r\n        require(playerlist.length>=1,\"Not enough players\");\r\n        require(state == GameState.NOTSTARTED, \"Game is either in progress or has ended. Please start a new game.\");\r\n        state = GameState.INPROGRESS;\r\n        //uint answer = rndGenerate(6) + 1;\r\n        uint answer = 2;\r\n        \r\n        uint winnertottokens;\r\n        for (uint i=0; i<playerlist.length;i++){\r\n            address payable playerAddress=playerlist[i];\r\n            if (playerinfo[playerAddress].selectednr==answer){\r\n                winnerlist.push(playerAddress);\r\n                winnertottokens+=playerinfo[playerAddress].bettokens;\r\n            }\r\n        }\r\n        if (winnerlist.length==0){\r\n            for (uint i=0; i<globallist.length;i++){\r\n            address payable playerAddress=globallist[i];\r\n                if (playerinfo[playerAddress].totaltokens>0){\r\n                    playerAddress.transfer(playerinfo[playerAddress].totaltokens*1 ether);\r\n                }\r\n            }\r\n        }\r\n        else{\r\n           uint payout = tokenpot / winnerlist.length;\r\n           for (uint j=0; j<winnerlist.length; j++){\r\n              address payable winnerAddress=winnerlist[j];\r\n              //uint payout=(tokenpot/winnertottokens)*playerinfo[winnerAddress].bettokens;\r\n              tokenpot=tokenpot.sub(payout);\r\n              playerinfo[winnerAddress].totaltokens=playerinfo[winnerAddress].totaltokens.add(payout);\r\n           } \r\n           //if (tokenpot!=0){\r\n           //   playerinfo[payable(owner())].totaltokens=playerinfo[payable(owner())].totaltokens.add(tokenpot);\r\n           //   tokenpot=0;\r\n           //}\r\n           \r\n            for (uint i=0; i<globallist.length;i++){\r\n                address payable playerAddress=globallist[i];\r\n                if (playerinfo[playerAddress].totaltokens>0){\r\n                    playerAddress.transfer(playerinfo[playerAddress].totaltokens*1 ether);\r\n                }\r\n            }\r\n        }\r\n        state = GameState.ENDED;\r\n        selfdestruct(payable(owner()));\r\n    }\r\n    \r\n    //function startTimeCheck() public view returns (uint){\r\n    //    return startTime;\r\n    //}\r\n    \r\n    function contractExpiry() public payable onlyOwner{\r\n        require(block.timestamp>startTime+30 minutes && startTime!=0 ,\"Contract has not expired\");\r\n        for (uint i=0; i<globallist.length;i++){\r\n            address payable playerAddress=globallist[i];\r\n            if (playerinfo[playerAddress].totaltokens>0){\r\n                playerAddress.transfer(playerinfo[playerAddress].totaltokens*1 ether);\r\n            }\r\n        }\r\n        selfdestruct(payable(owner()));\r\n    }\r\n    \r\n}",
  "sourcePath": "C:/Users/olive/game/hollyrollypolly/contracts/HollyRollyPolly.sol",
  "compiler": {
    "name": "solc",
    "version": "0.7.6+commit.7338295f.Emscripten.clang"
  },
  "schemaVersion": "3.3.2",
  "updatedAt": "2020-12-20T06:28:46.901Z",
  "devdoc": {
    "kind": "dev",
    "methods": {},
    "version": 1
  },
  "userdoc": {
    "kind": "user",
    "methods": {},
    "version": 1
  }
}