{
  "contractName": "Factory",
  "abi": [
    {
      "inputs": [
        {
          "internalType": "uint256",
          "name": "",
          "type": "uint256"
        }
      ],
      "name": "historyRooms",
      "outputs": [
        {
          "internalType": "contract HollyRollyPolly",
          "name": "",
          "type": "address"
        }
      ],
      "stateMutability": "view",
      "type": "function",
      "constant": true
    },
    {
      "inputs": [
        {
          "internalType": "uint256",
          "name": "",
          "type": "uint256"
        }
      ],
      "name": "rooms",
      "outputs": [
        {
          "internalType": "contract HollyRollyPolly",
          "name": "",
          "type": "address"
        }
      ],
      "stateMutability": "view",
      "type": "function",
      "constant": true
    },
    {
      "inputs": [
        {
          "internalType": "uint256",
          "name": "",
          "type": "uint256"
        }
      ],
      "name": "tempRooms",
      "outputs": [
        {
          "internalType": "contract HollyRollyPolly",
          "name": "",
          "type": "address"
        }
      ],
      "stateMutability": "view",
      "type": "function",
      "constant": true
    },
    {
      "inputs": [
        {
          "internalType": "uint256",
          "name": "x",
          "type": "uint256"
        }
      ],
      "name": "set",
      "outputs": [],
      "stateMutability": "nonpayable",
      "type": "function"
    },
    {
      "inputs": [],
      "name": "get",
      "outputs": [
        {
          "internalType": "uint256",
          "name": "",
          "type": "uint256"
        }
      ],
      "stateMutability": "view",
      "type": "function",
      "constant": true
    },
    {
      "inputs": [],
      "name": "createRooms",
      "outputs": [],
      "stateMutability": "nonpayable",
      "type": "function"
    },
    {
      "inputs": [
        {
          "internalType": "contract HollyRollyPolly",
          "name": "rm",
          "type": "address"
        }
      ],
      "name": "checkOwner",
      "outputs": [
        {
          "internalType": "address",
          "name": "",
          "type": "address"
        }
      ],
      "stateMutability": "view",
      "type": "function",
      "constant": true
    },
    {
      "inputs": [
        {
          "internalType": "contract HollyRollyPolly",
          "name": "rm",
          "type": "address"
        }
      ],
      "name": "closeRoom",
      "outputs": [],
      "stateMutability": "nonpayable",
      "type": "function"
    },
    {
      "inputs": [],
      "name": "dispLobby",
      "outputs": [
        {
          "internalType": "contract HollyRollyPolly[]",
          "name": "hrp",
          "type": "address[]"
        }
      ],
      "stateMutability": "view",
      "type": "function",
      "constant": true
    },
    {
      "inputs": [],
      "name": "getTotalRooms",
      "outputs": [
        {
          "internalType": "uint256",
          "name": "",
          "type": "uint256"
        }
      ],
      "stateMutability": "view",
      "type": "function",
      "constant": true
    },
    {
      "inputs": [],
      "name": "dispHistoryRooms",
      "outputs": [
        {
          "internalType": "contract HollyRollyPolly[]",
          "name": "hrp",
          "type": "address[]"
        }
      ],
      "stateMutability": "view",
      "type": "function",
      "constant": true
    }
  ],
  "bytecode": "0x60806040526002805534801561001457600080fd5b506136c9806100246000396000f3fe608060405234801561001057600080fd5b50600436106100a95760003560e01c80635f8044f8116100715780635f8044f8146101e557806360fe47b11461023d5780636d4ce63c1461026b5780637f5d515914610289578063b6302644146102e8578063e0e3671c1461032c576100a9565b8063053b010b146100ae5780631bae0ac8146100b85780632ed5f28a146101105780633527b8221461012e5780634e022c8914610186575b600080fd5b6100b661039a565b005b6100e4600480360360208110156100ce57600080fd5b810190808035906020019092919050505061050d565b604051808273ffffffffffffffffffffffffffffffffffffffff16815260200191505060405180910390f35b610118610549565b6040518082815260200191505060405180910390f35b61015a6004803603602081101561014457600080fd5b8101908080359060200190929190505050610555565b604051808273ffffffffffffffffffffffffffffffffffffffff16815260200191505060405180910390f35b61018e610591565b6040518080602001828103825283818151815260200191508051906020019060200280838360005b838110156101d15780820151818401526020810190506101b6565b505050509050019250505060405180910390f35b610211600480360360208110156101fb57600080fd5b810190808035906020019092919050505061061f565b604051808273ffffffffffffffffffffffffffffffffffffffff16815260200191505060405180910390f35b6102696004803603602081101561025357600080fd5b810190808035906020019092919050505061065b565b005b610273610665565b6040518082815260200191505060405180910390f35b61029161066f565b6040518080602001828103825283818151815260200191508051906020019060200280838360005b838110156102d45780820151818401526020810190506102b9565b505050509050019250505060405180910390f35b61032a600480360360208110156102fe57600080fd5b81019080803573ffffffffffffffffffffffffffffffffffffffff1690602001909291905050506106fd565b005b61036e6004803603602081101561034257600080fd5b81019080803573ffffffffffffffffffffffffffffffffffffffff1690602001909291905050506108bb565b604051808273ffffffffffffffffffffffffffffffffffffffff16815260200191505060405180910390f35b600254600080549050106103f9576040517f08c379a000000000000000000000000000000000000000000000000000000000815260040180806020018281038252602881526020018061366c6028913960400191505060405180910390fd5b600060405161040790610945565b604051809103906000f080158015610423573d6000803e3d6000fd5b5090508073ffffffffffffffffffffffffffffffffffffffff1663f2fde38b336040518263ffffffff1660e01b8152600401808273ffffffffffffffffffffffffffffffffffffffff168152602001915050600060405180830381600087803b15801561048f57600080fd5b505af11580156104a3573d6000803e3d6000fd5b505050506000819080600181540180825580915050600190039060005260206000200160009091909190916101000a81548173ffffffffffffffffffffffffffffffffffffffff021916908373ffffffffffffffffffffffffffffffffffffffff16021790555050565b6000818154811061051a57fe5b906000526020600020016000915054906101000a900473ffffffffffffffffffffffffffffffffffffffff1681565b60008080549050905090565b6001818154811061056257fe5b906000526020600020016000915054906101000a900473ffffffffffffffffffffffffffffffffffffffff1681565b6060600080548060200260200160405190810160405280929190818152602001828054801561061557602002820191906000526020600020905b8160009054906101000a900473ffffffffffffffffffffffffffffffffffffffff1673ffffffffffffffffffffffffffffffffffffffff16815260200190600101908083116105cb575b5050505050905090565b6003818154811061062c57fe5b906000526020600020016000915054906101000a900473ffffffffffffffffffffffffffffffffffffffff1681565b8060048190555050565b6000600454905090565b606060038054806020026020016040519081016040528092919081815260200182805480156106f357602002820191906000526020600020905b8160009054906101000a900473ffffffffffffffffffffffffffffffffffffffff1673ffffffffffffffffffffffffffffffffffffffff16815260200190600101908083116106a9575b5050505050905090565b60006001805490501461071957600160006107189190610952565b5b60005b6000805490508110156108a4576000818154811061073657fe5b9060005260206000200160009054906101000a900473ffffffffffffffffffffffffffffffffffffffff1673ffffffffffffffffffffffffffffffffffffffff168273ffffffffffffffffffffffffffffffffffffffff1614156107fc576003829080600181540180825580915050600190039060005260206000200160009091909190916101000a81548173ffffffffffffffffffffffffffffffffffffffff021916908373ffffffffffffffffffffffffffffffffffffffff160217905550610897565b60016000828154811061080b57fe5b9060005260206000200160009054906101000a900473ffffffffffffffffffffffffffffffffffffffff169080600181540180825580915050600190039060005260206000200160009091909190916101000a81548173ffffffffffffffffffffffffffffffffffffffff021916908373ffffffffffffffffffffffffffffffffffffffff1602179055505b808060010191505061071c565b50600160009080546108b7929190610973565b5050565b60008173ffffffffffffffffffffffffffffffffffffffff16638da5cb5b6040518163ffffffff1660e01b815260040160206040518083038186803b15801561090357600080fd5b505afa158015610917573d6000803e3d6000fd5b505050506040513d602081101561092d57600080fd5b81019080805190602001909291905050509050919050565b612c4e80610a1e83390190565b508054600082559060005260206000209081019061097091906109c5565b50565b8280548282559060005260206000209081019282156109b45760005260206000209182015b828111156109b3578254825591600101919060010190610998565b5b5090506109c191906109e2565b5090565b5b808211156109de5760008160009055506001016109c6565b5090565b5b80821115610a1957600081816101000a81549073ffffffffffffffffffffffffffffffffffffffff0219169055506001016109e3565b509056fe608060405260036008556001600a556000600b556000600e60006101000a81548160ff0219169083600281111561003257fe5b021790555034801561004357600080fd5b5060006100546100f760201b60201c565b9050806000806101000a81548173ffffffffffffffffffffffffffffffffffffffff021916908373ffffffffffffffffffffffffffffffffffffffff1602179055508073ffffffffffffffffffffffffffffffffffffffff16600073ffffffffffffffffffffffffffffffffffffffff167f8be0079c531659141344cd1fd0a4f28419497f9722a3daafe3b4186f6b6457e060405160405180910390a3506100ff565b600033905090565b612b3f806200010f6000396000f3fe6080604052600436106100fe5760003560e01c80638da5cb5b11610095578063d66d9e1911610064578063d66d9e19146102dc578063f2fde38b146102e6578063f9119fd214610337578063fbda788314610362578063fc884bff146103ce576100fe565b80638da5cb5b14610215578063953992c9146102565780639d90199e146102a7578063b2193bf8146102b1576100fe565b8063714e9b81116100d1578063714e9b81146101bf578063715018a6146101c95780637ae659e4146101e057806389aba6421461020b576100fe565b80630fd7e8a91461010357806312065fe01461012e578063129874aa146101595780636bf2cc8714610191575b600080fd5b34801561010f57600080fd5b506101186103e5565b6040518082815260200191505060405180910390f35b34801561013a57600080fd5b506101436103f2565b6040518082815260200191505060405180910390f35b61018f6004803603604081101561016f57600080fd5b8101908080359060200190929190803590602001909291905050506103fa565b005b6101bd600480360360208110156101a757600080fd5b81019080803590602001909291905050506109b1565b005b6101c7610c17565b005b3480156101d557600080fd5b506101de61134b565b005b3480156101ec57600080fd5b506101f56114d1565b6040518082815260200191505060405180910390f35b61021361151b565b005b34801561022157600080fd5b5061022a6117c7565b604051808273ffffffffffffffffffffffffffffffffffffffff16815260200191505060405180910390f35b34801561026257600080fd5b506102a56004803603602081101561027957600080fd5b81019080803573ffffffffffffffffffffffffffffffffffffffff1690602001909291905050506117f0565b005b6102af61196a565b005b3480156102bd57600080fd5b506102c6611c4d565b6040518082815260200191505060405180910390f35b6102e4611c57565b005b3480156102f257600080fd5b506103356004803603602081101561030957600080fd5b81019080803573ffffffffffffffffffffffffffffffffffffffff169060200190929190505050611fff565b005b34801561034357600080fd5b5061034c61220a565b6040518082815260200191505060405180910390f35b34801561036e57600080fd5b50610377612217565b6040518080602001828103825283818151815260200191508051906020019060200280838360005b838110156103ba57808201518184015260208101905061039f565b505050509050019250505060405180910390f35b3480156103da57600080fd5b506103e36122a5565b005b6000600380549050905090565b600047905090565b6104026117c7565b73ffffffffffffffffffffffffffffffffffffffff163373ffffffffffffffffffffffffffffffffffffffff161415610486576040517f08c379a00000000000000000000000000000000000000000000000000000000081526004018080602001828103825260278152602001806129eb6027913960400191505060405180910390fd5b6000600b5414806104985750600b5482145b6104ed576040517f08c379a00000000000000000000000000000000000000000000000000000000081526004018080602001828103825260398152602001806129b26039913960400191505060405180910390fd5b60008211610563576040517f08c379a00000000000000000000000000000000000000000000000000000000081526004018080602001828103825260178152602001807f4e65656420746f20626574206d6f7265207468616e203000000000000000000081525060200191505060405180910390fd5b600160003373ffffffffffffffffffffffffffffffffffffffff1673ffffffffffffffffffffffffffffffffffffffff16815260200190815260200160002060030160009054906101000a900460ff1615610609576040517f08c379a00000000000000000000000000000000000000000000000000000000081526004018080602001828103825260218152602001806129916021913960400191505060405180910390fd5b81600160003373ffffffffffffffffffffffffffffffffffffffff1673ffffffffffffffffffffffffffffffffffffffff1681526020019081526020016000206000015410156106a4576040517f08c379a0000000000000000000000000000000000000000000000000000000008152600401808060200182810382526036815260200180612a126036913960400191505060405180910390fd5b600181101580156106b6575060068111155b610728576040517f08c379a000000000000000000000000000000000000000000000000000000000815260040180806020018281038252601b8152602001807f43686f6f73652061206e756d6265722066726f6d203120746f2036000000000081525060200191505060405180910390fd5b6000600b54141561074f5781600b8190555042600c81905550610708600c5401600d819055505b6005339080600181540180825580915050600190039060005260206000200160009091909190916101000a81548173ffffffffffffffffffffffffffffffffffffffff021916908373ffffffffffffffffffffffffffffffffffffffff16021790555081600160003373ffffffffffffffffffffffffffffffffffffffff1673ffffffffffffffffffffffffffffffffffffffff1681526020019081526020016000206001018190555080600160003373ffffffffffffffffffffffffffffffffffffffff1673ffffffffffffffffffffffffffffffffffffffff16815260200190815260200160002060020181905550610855826009546126ae90919063ffffffff16565b6009819055506108b082600160003373ffffffffffffffffffffffffffffffffffffffff1673ffffffffffffffffffffffffffffffffffffffff1681526020019081526020016000206000015461273690919063ffffffff16565b600160003373ffffffffffffffffffffffffffffffffffffffff1673ffffffffffffffffffffffffffffffffffffffff1681526020019081526020016000206000018190555060018060003373ffffffffffffffffffffffffffffffffffffffff1673ffffffffffffffffffffffffffffffffffffffff16815260200190815260200160002060030160006101000a81548160ff0219169083151502179055507f92f56d4be21be518d179c102e585cb71890b7f12b3a77e9c2393ecae0834ac3c338383604051808473ffffffffffffffffffffffffffffffffffffffff168152602001838152602001828152602001935050505060405180910390a15050565b60008111610a27576040517f08c379a00000000000000000000000000000000000000000000000000000000081526004018080602001828103825260208152602001807f4e65656420746f206368616e6765206d6f7265207468616e203120546f6b656e81525060200191505060405180910390fd5b80600160003373ffffffffffffffffffffffffffffffffffffffff1673ffffffffffffffffffffffffffffffffffffffff168152602001908152602001600020600001541015610ac2576040517f08c379a000000000000000000000000000000000000000000000000000000000815260040180806020018281038252603281526020018061295f6032913960400191505060405180910390fd5b610b1781600160003373ffffffffffffffffffffffffffffffffffffffff1673ffffffffffffffffffffffffffffffffffffffff1681526020019081526020016000206000015461273690919063ffffffff16565b600160003373ffffffffffffffffffffffffffffffffffffffff1673ffffffffffffffffffffffffffffffffffffffff168152602001908152602001600020600001819055503373ffffffffffffffffffffffffffffffffffffffff166108fc670de0b6b3a764000083029081150290604051600060405180830381858888f19350505050158015610bad573d6000803e3d6000fd5b507f95993826bb48cd07c089a6c2c05649a32573eea93cdffc3e423c47a97a1bcf0233670de0b6b3a76400003481610be157fe5b04604051808373ffffffffffffffffffffffffffffffffffffffff1681526020018281526020019250505060405180910390a150565b610c1f612780565b73ffffffffffffffffffffffffffffffffffffffff1660008054906101000a900473ffffffffffffffffffffffffffffffffffffffff1673ffffffffffffffffffffffffffffffffffffffff1614610cdf576040517f08c379a00000000000000000000000000000000000000000000000000000000081526004018080602001828103825260208152602001807f4f776e61626c653a2063616c6c6572206973206e6f7420746865206f776e657281525060200191505060405180910390fd5b60016005805490501015610d5b576040517f08c379a00000000000000000000000000000000000000000000000000000000081526004018080602001828103825260128152602001807f4e6f7420656e6f75676820706c6179657273000000000000000000000000000081525060200191505060405180910390fd5b60006002811115610d6857fe5b600e60009054906101000a900460ff166002811115610d8357fe5b14610dd9576040517f08c379a0000000000000000000000000000000000000000000000000000000008152600401808060200182810382526041815260200180612ac96041913960600191505060405180910390fd5b6001600e60006101000a81548160ff02191690836002811115610df857fe5b0217905550600060029050600080600090505b600580549050811015610f5757600060058281548110610e2757fe5b9060005260206000200160009054906101000a900473ffffffffffffffffffffffffffffffffffffffff16905083600160008373ffffffffffffffffffffffffffffffffffffffff1673ffffffffffffffffffffffffffffffffffffffff168152602001908152602001600020600201541415610f49576007819080600181540180825580915050600190039060005260206000200160009091909190916101000a81548173ffffffffffffffffffffffffffffffffffffffff021916908373ffffffffffffffffffffffffffffffffffffffff160217905550600160008273ffffffffffffffffffffffffffffffffffffffff1673ffffffffffffffffffffffffffffffffffffffff16815260200190815260200160002060010154830192505b508080600101915050610e0b565b50600060078054905014156110a55760005b60038054905081101561109f57600060038281548110610f8557fe5b9060005260206000200160009054906101000a900473ffffffffffffffffffffffffffffffffffffffff1690506000600160008373ffffffffffffffffffffffffffffffffffffffff1673ffffffffffffffffffffffffffffffffffffffff168152602001908152602001600020600001541115611091578073ffffffffffffffffffffffffffffffffffffffff166108fc670de0b6b3a7640000600160008573ffffffffffffffffffffffffffffffffffffffff1673ffffffffffffffffffffffffffffffffffffffff16815260200190815260200160002060000154029081150290604051600060405180830381858888f1935050505015801561108f573d6000803e3d6000fd5b505b508080600101915050610f69565b50611307565b6000600780549050600954816110b757fe5b04905060005b6007805490508110156111ca576000600782815481106110d957fe5b9060005260206000200160009054906101000a900473ffffffffffffffffffffffffffffffffffffffff16905061111b8360095461273690919063ffffffff16565b60098190555061117683600160008473ffffffffffffffffffffffffffffffffffffffff1673ffffffffffffffffffffffffffffffffffffffff168152602001908152602001600020600001546126ae90919063ffffffff16565b600160008373ffffffffffffffffffffffffffffffffffffffff1673ffffffffffffffffffffffffffffffffffffffff168152602001908152602001600020600001819055505080806001019150506110bd565b5060005b600380549050811015611304576000600382815481106111ea57fe5b9060005260206000200160009054906101000a900473ffffffffffffffffffffffffffffffffffffffff1690506000600160008373ffffffffffffffffffffffffffffffffffffffff1673ffffffffffffffffffffffffffffffffffffffff1681526020019081526020016000206000015411156112f6578073ffffffffffffffffffffffffffffffffffffffff166108fc670de0b6b3a7640000600160008573ffffffffffffffffffffffffffffffffffffffff1673ffffffffffffffffffffffffffffffffffffffff16815260200190815260200160002060000154029081150290604051600060405180830381858888f193505050501580156112f4573d6000803e3d6000fd5b505b5080806001019150506111ce565b50505b6002600e60006101000a81548160ff0219169083600281111561132657fe5b02179055506113336117c7565b73ffffffffffffffffffffffffffffffffffffffff16ff5b611353612780565b73ffffffffffffffffffffffffffffffffffffffff1660008054906101000a900473ffffffffffffffffffffffffffffffffffffffff1673ffffffffffffffffffffffffffffffffffffffff1614611413576040517f08c379a00000000000000000000000000000000000000000000000000000000081526004018080602001828103825260208152602001807f4f776e61626c653a2063616c6c6572206973206e6f7420746865206f776e657281525060200191505060405180910390fd5b600073ffffffffffffffffffffffffffffffffffffffff1660008054906101000a900473ffffffffffffffffffffffffffffffffffffffff1673ffffffffffffffffffffffffffffffffffffffff167f8be0079c531659141344cd1fd0a4f28419497f9722a3daafe3b4186f6b6457e060405160405180910390a360008060006101000a81548173ffffffffffffffffffffffffffffffffffffffff021916908373ffffffffffffffffffffffffffffffffffffffff160217905550565b6000600160003373ffffffffffffffffffffffffffffffffffffffff1673ffffffffffffffffffffffffffffffffffffffff16815260200190815260200160002060000154905090565b611523612780565b73ffffffffffffffffffffffffffffffffffffffff1660008054906101000a900473ffffffffffffffffffffffffffffffffffffffff1673ffffffffffffffffffffffffffffffffffffffff16146115e3576040517f08c379a00000000000000000000000000000000000000000000000000000000081526004018080602001828103825260208152602001807f4f776e61626c653a2063616c6c6572206973206e6f7420746865206f776e657281525060200191505060405180910390fd5b610708600c5401421180156115fb57506000600c5414155b61166d576040517f08c379a00000000000000000000000000000000000000000000000000000000081526004018080602001828103825260188152602001807f436f6e747261637420686173206e6f742065787069726564000000000000000081525060200191505060405180910390fd5b60005b6003805490508110156117a65760006003828154811061168c57fe5b9060005260206000200160009054906101000a900473ffffffffffffffffffffffffffffffffffffffff1690506000600160008373ffffffffffffffffffffffffffffffffffffffff1673ffffffffffffffffffffffffffffffffffffffff168152602001908152602001600020600001541115611798578073ffffffffffffffffffffffffffffffffffffffff166108fc670de0b6b3a7640000600160008573ffffffffffffffffffffffffffffffffffffffff1673ffffffffffffffffffffffffffffffffffffffff16815260200190815260200160002060000154029081150290604051600060405180830381858888f19350505050158015611796573d6000803e3d6000fd5b505b508080600101915050611670565b506117af6117c7565b73ffffffffffffffffffffffffffffffffffffffff16ff5b60008060009054906101000a900473ffffffffffffffffffffffffffffffffffffffff16905090565b6117f8612780565b73ffffffffffffffffffffffffffffffffffffffff1660008054906101000a900473ffffffffffffffffffffffffffffffffffffffff1673ffffffffffffffffffffffffffffffffffffffff16146118b8576040517f08c379a00000000000000000000000000000000000000000000000000000000081526004018080602001828103825260208152602001807f4f776e61626c653a2063616c6c6572206973206e6f7420746865206f776e657281525060200191505060405180910390fd5b600160008273ffffffffffffffffffffffffffffffffffffffff1673ffffffffffffffffffffffffffffffffffffffff16815260200190815260200160002060030160009054906101000a900460ff161561195e576040517f08c379a000000000000000000000000000000000000000000000000000000000815260040180806020018281038252605c815260200180612a48605c913960600191505060405180910390fd5b61196781611fff565b50565b670de0b6b3a76400003410156119e8576040517f08c379a00000000000000000000000000000000000000000000000000000000081526004018080602001828103825260208152602001807f4e65656420746f206368616e6765206d6f7265207468616e203120457468657281525060200191505060405180910390fd5b670de0b6b3a764000034816119f957fe5b043373ffffffffffffffffffffffffffffffffffffffff16311015611a69576040517f08c379a00000000000000000000000000000000000000000000000000000000081526004018080602001828103825260258152602001806129146025913960400191505060405180910390fd5b670de0b6b3a76400003481611a7a57fe5b04600160003373ffffffffffffffffffffffffffffffffffffffff1673ffffffffffffffffffffffffffffffffffffffff1681526020019081526020016000206000016000828254019250508190555060001515600260003373ffffffffffffffffffffffffffffffffffffffff1673ffffffffffffffffffffffffffffffffffffffff16815260200190815260200160002060000160009054906101000a900460ff1615151415611be5576003339080600181540180825580915050600190039060005260206000200160009091909190916101000a81548173ffffffffffffffffffffffffffffffffffffffff021916908373ffffffffffffffffffffffffffffffffffffffff1602179055506001600260003373ffffffffffffffffffffffffffffffffffffffff1673ffffffffffffffffffffffffffffffffffffffff16815260200190815260200160002060000160006101000a81548160ff0219169083151502179055505b7f88def5357fb4c3c9fbd7f52ac01313c65e063fb1aea2298ead054fdebdde02e433670de0b6b3a76400003481611c1857fe5b04604051808373ffffffffffffffffffffffffffffffffffffffff1681526020018281526020019250505060405180910390a1565b6000600954905090565b600060068054905014611c735760066000611c729190612848565b5b600060048054905014611c8f5760046000611c8e9190612848565b5b611c976117c7565b73ffffffffffffffffffffffffffffffffffffffff163373ffffffffffffffffffffffffffffffffffffffff161415611d38576040517f08c379a00000000000000000000000000000000000000000000000000000000081526004018080602001828103825260208152602001807f546865204f776e65722063616e6e6f74206c6561766520746865206c6f62627981525060200191505060405180910390fd5b60005b600380549050811015611e2957600060038281548110611d5757fe5b9060005260206000200160009054906101000a900473ffffffffffffffffffffffffffffffffffffffff1690503373ffffffffffffffffffffffffffffffffffffffff168173ffffffffffffffffffffffffffffffffffffffff1614611e1b576004819080600181540180825580915050600190039060005260206000200160009091909190916101000a81548173ffffffffffffffffffffffffffffffffffffffff021916908373ffffffffffffffffffffffffffffffffffffffff1602179055505b508080600101915050611d3b565b5060046003908054611e3c929190612869565b506000600260003373ffffffffffffffffffffffffffffffffffffffff1673ffffffffffffffffffffffffffffffffffffffff16815260200190815260200160002060000160006101000a81548160ff02191690831515021790555060011515600160003373ffffffffffffffffffffffffffffffffffffffff1673ffffffffffffffffffffffffffffffffffffffff16815260200190815260200160002060030160009054906101000a900460ff1615151415611f5957611efc6122a5565b7f28c6d12519acf4bb4eccc5c9bb9be3c79cefe70a69cb40299300fb1de9dee9c9336001604051808373ffffffffffffffffffffffffffffffffffffffff16815260200182151581526020019250505060405180910390a1611ffd565b611fa4600160003373ffffffffffffffffffffffffffffffffffffffff1673ffffffffffffffffffffffffffffffffffffffff168152602001908152602001600020600001546109b1565b7f28c6d12519acf4bb4eccc5c9bb9be3c79cefe70a69cb40299300fb1de9dee9c9336000604051808373ffffffffffffffffffffffffffffffffffffffff16815260200182151581526020019250505060405180910390a15b565b612007612780565b73ffffffffffffffffffffffffffffffffffffffff1660008054906101000a900473ffffffffffffffffffffffffffffffffffffffff1673ffffffffffffffffffffffffffffffffffffffff16146120c7576040517f08c379a00000000000000000000000000000000000000000000000000000000081526004018080602001828103825260208152602001807f4f776e61626c653a2063616c6c6572206973206e6f7420746865206f776e657281525060200191505060405180910390fd5b600073ffffffffffffffffffffffffffffffffffffffff168173ffffffffffffffffffffffffffffffffffffffff16141561214d576040517f08c379a00000000000000000000000000000000000000000000000000000000081526004018080602001828103825260268152602001806129396026913960400191505060405180910390fd5b8073ffffffffffffffffffffffffffffffffffffffff1660008054906101000a900473ffffffffffffffffffffffffffffffffffffffff1673ffffffffffffffffffffffffffffffffffffffff167f8be0079c531659141344cd1fd0a4f28419497f9722a3daafe3b4186f6b6457e060405160405180910390a3806000806101000a81548173ffffffffffffffffffffffffffffffffffffffff021916908373ffffffffffffffffffffffffffffffffffffffff16021790555050565b6000600580549050905090565b6060600580548060200260200160405190810160405280929190818152602001828054801561229b57602002820191906000526020600020905b8160009054906101000a900473ffffffffffffffffffffffffffffffffffffffff1673ffffffffffffffffffffffffffffffffffffffff1681526020019060010190808311612251575b5050505050905090565b6000600680549050146122c157600660006122c09190612848565b5b6000600480549050146122dd57600460006122dc9190612848565b5b600160003373ffffffffffffffffffffffffffffffffffffffff1673ffffffffffffffffffffffffffffffffffffffff16815260200190815260200160002060030160009054906101000a900460ff16612382576040517f08c379a0000000000000000000000000000000000000000000000000000000008152600401808060200182810382526025815260200180612aa46025913960400191505060405180910390fd5b6123d9600160003373ffffffffffffffffffffffffffffffffffffffff1673ffffffffffffffffffffffffffffffffffffffff1681526020019081526020016000206001015460095461273690919063ffffffff16565b600981905550612476600160003373ffffffffffffffffffffffffffffffffffffffff1673ffffffffffffffffffffffffffffffffffffffff16815260200190815260200160002060010154600160003373ffffffffffffffffffffffffffffffffffffffff1673ffffffffffffffffffffffffffffffffffffffff168152602001908152602001600020600001546126ae90919063ffffffff16565b600160003373ffffffffffffffffffffffffffffffffffffffff1673ffffffffffffffffffffffffffffffffffffffff168152602001908152602001600020600001819055506000600160003373ffffffffffffffffffffffffffffffffffffffff1673ffffffffffffffffffffffffffffffffffffffff168152602001908152602001600020600101819055506000600160003373ffffffffffffffffffffffffffffffffffffffff1673ffffffffffffffffffffffffffffffffffffffff168152602001908152602001600020600201819055506000600160003373ffffffffffffffffffffffffffffffffffffffff1673ffffffffffffffffffffffffffffffffffffffff16815260200190815260200160002060030160006101000a81548160ff02191690831515021790555060005b600580549050811015612698576000600582815481106125c657fe5b9060005260206000200160009054906101000a900473ffffffffffffffffffffffffffffffffffffffff1690503373ffffffffffffffffffffffffffffffffffffffff168173ffffffffffffffffffffffffffffffffffffffff161461268a576006819080600181540180825580915050600190039060005260206000200160009091909190916101000a81548173ffffffffffffffffffffffffffffffffffffffff021916908373ffffffffffffffffffffffffffffffffffffffff1602179055505b5080806001019150506125aa565b50600660059080546126ab929190612869565b50565b60008082840190508381101561272c576040517f08c379a000000000000000000000000000000000000000000000000000000000815260040180806020018281038252601b8152602001807f536166654d6174683a206164646974696f6e206f766572666c6f77000000000081525060200191505060405180910390fd5b8091505092915050565b600061277883836040518060400160405280601e81526020017f536166654d6174683a207375627472616374696f6e206f766572666c6f770000815250612788565b905092915050565b600033905090565b6000838311158290612835576040517f08c379a00000000000000000000000000000000000000000000000000000000081526004018080602001828103825283818151815260200191508051906020019080838360005b838110156127fa5780820151818401526020810190506127df565b50505050905090810190601f1680156128275780820380516001836020036101000a031916815260200191505b509250505060405180910390fd5b5060008385039050809150509392505050565b508054600082559060005260206000209081019061286691906128bb565b50565b8280548282559060005260206000209081019282156128aa5760005260206000209182015b828111156128a957825482559160010191906001019061288e565b5b5090506128b791906128d8565b5090565b5b808211156128d45760008160009055506001016128bc565b5090565b5b8082111561290f57600081816101000a81549073ffffffffffffffffffffffffffffffffffffffff0219169055506001016128d9565b509056fe4e6f7420656e6f7567682066756e647320746f20636f6e7665727420746f20546f6b656e734f776e61626c653a206e6577206f776e657220697320746865207a65726f2061646472657373596f752063616e6e6f74206368616e6765206f7574206d6f726520746f6b656e73207468616e20796f7520706f7373657373506c6179657220697320616c726561647920696e73696465207468652067616d65506c656173652062657420746f6b656e73206163636f7264696e6720746f207468652062657420616c6c6f636174656420746f20726f6f6d2e526f6f6d206f776e65722063616e6e6f7420706172746963697061746520696e2061206265742e596f75206861766520626574206d6f726520746f6b656e73207468616e20796f75206861766520696e20796f7572206163636f756e74546865206e6577206f776e65722063616e6e6f7420706172746963697061746520696e2d67616d652e20456e737572652074686174206265742069732072656d6f766564206265666f726520737769746368696e67206f776e65722e43616e6e6f742072656d6f7665206265742069662075736572206e6f7420696e2067616d6547616d652069732065697468657220696e2070726f6772657373206f722068617320656e6465642e20506c656173652073746172742061206e65772067616d652ea2646970667358221220cba15f630f5caf111807545d238f5a505c3b6cad54d5f1cf6e4c89b4c5e137c864736f6c634300070000334d6178696d756d20436170616369747920726561636865642e20506c6561736520776169742e2e2ea2646970667358221220692b7da8c8ec4b13de005008e9c2b2a6b975eb37608bdd6af84307e067df9f3e64736f6c63430007000033",
  "immutableReferences": {},
  "source": "pragma solidity ^0.7.0;\r\n\r\nimport \"@openzeppelin/contracts/math/SafeMath.sol\";\r\nimport \"@openzeppelin/contracts/access/Ownable.sol\";\r\n\r\n//Basic Contract Room creation + Limit working. When player joins room, automatically switch context to relevant HRP address. \r\ncontract Factory{\r\n    HollyRollyPolly [] public rooms; //Using pointers\r\n    HollyRollyPolly [] public tempRooms; //Used as temporary storage for closing rooms. \r\n    uint maxFacLimit = 2; //Set to 2 for debugging purpose... \r\n    HollyRollyPolly [] public historyRooms; //Rooms that are self-destructed.\r\n    uint testStoredData;\r\n\r\n    modifier clearTempList{\r\n        if(tempRooms.length!=0){\r\n            delete tempRooms;\r\n        }\r\n        _;\r\n    }\r\n    \r\n    function set(uint x) public {\r\n        testStoredData = x;\r\n    }\r\n\r\n    function get() public view returns (uint) {\r\n        return testStoredData;\r\n    }\r\n\r\n    function createRooms()public{\r\n        require(rooms.length < maxFacLimit, \"Maximum Capacity reached. Please wait...\");\r\n        HollyRollyPolly newRm = new HollyRollyPolly();\r\n        newRm.transferOwnership(msg.sender); //To set current user as owner\r\n        rooms.push(newRm);\r\n    }\r\n    \r\n    function checkOwner(HollyRollyPolly rm) public view returns(address){\r\n        return rm.owner();\r\n    }\r\n    \r\n    //Close room. Only run this after the contract has self-destruct. ONLY RUN THIS WHEN OWNER CLOSE ROOM. THIS FUNCTION NEEDS TO BE HIDDEN FROM OTHER USERS EXCEPT OWNERS.\r\n    function closeRoom(HollyRollyPolly rm)public clearTempList{ \r\n        //require(rm.owner() == msg.sender, \"Only owner of the room can close the room.\"); //Check only works if room has not self-destruct. Quite buggy at times. \r\n        for(uint i = 0; i < rooms.length; i++){\r\n            if(rm == rooms[i]){\r\n                historyRooms.push(rm);\r\n                continue; //Skip this because this is going to be stored in history. \r\n            } else{\r\n                tempRooms.push(rooms[i]);\r\n            }\r\n        }\r\n        rooms = tempRooms; //Overwrite existing rooms with temp rooms. \r\n    }\r\n    \r\n    //Display all available rooms in lobby.\r\n    function dispLobby() public view returns(HollyRollyPolly [] memory hrp){\r\n        return rooms;\r\n    } \r\n    \r\n    //Display total number of existing rooms.     \r\n    function getTotalRooms() public view returns (uint){\r\n        return rooms.length;\r\n    }\r\n    \r\n    //Display all the history rooms that has closed. (FOR DEBUGGING/AUDIT PURPOSE ONLY)\r\n    function dispHistoryRooms()public view returns(HollyRollyPolly [] memory hrp){\r\n        return historyRooms;\r\n    }\r\n    \r\n}\r\n\r\ncontract Tokencreation is Ownable{\r\n    using SafeMath for uint;\r\n    \r\n    struct Player{\r\n        uint totaltokens;\r\n        uint bettokens;\r\n        uint selectednr; \r\n        bool userparticipate;\r\n    }\r\n    \r\n    struct Change{\r\n        bool isChanged;\r\n    }\r\n    mapping(address => Player) playerinfo;\r\n    mapping(address => Change) changes;\r\n    \r\n    \r\n    address payable[] globallist;\r\n    address payable[] temp_globallist;\r\n    \r\n    event changeEthertoToken(address account, uint amount);\r\n    event changeTokentoEther(address account, uint amount);\r\n    \r\n    function EthertoToken() public payable{\r\n        require (msg.value>=1 ether, \"Need to change more than 1 Ether\");\r\n        require (msg.sender.balance>= msg.value/1 ether,\"Not enough funds to convert to Tokens\");\r\n        playerinfo[msg.sender].totaltokens+=msg.value/1 ether;\r\n        if(changes[msg.sender].isChanged == false){\r\n            globallist.push(msg.sender);\r\n            changes[msg.sender].isChanged = true;\r\n        }\r\n        emit changeEthertoToken(msg.sender, msg.value/1 ether);\r\n    }\r\n    \r\n    function TokentoEther(uint _xchangetokens) public payable{\r\n        require (_xchangetokens>0, \"Need to change more than 1 Token\");\r\n        require (playerinfo[msg.sender].totaltokens>= _xchangetokens,\"You cannot change out more tokens than you possess\");\r\n        playerinfo[msg.sender].totaltokens=playerinfo[msg.sender].totaltokens.sub(_xchangetokens);\r\n        msg.sender.transfer(_xchangetokens*1 ether);\r\n        emit changeTokentoEther(msg.sender, msg.value/1 ether);\r\n    }    \r\n    \r\n    function Playertokens() public view returns (uint){\r\n        return playerinfo[msg.sender].totaltokens;\r\n    }\r\n    \r\n      \r\n    function getBalance() public view returns (uint){\r\n        return address(this).balance;\r\n    }\r\n    \r\n    \r\n    function checklength() public view returns (uint){\r\n        return globallist.length;\r\n    }\r\n\r\n}\r\n\r\n\r\n\r\n//Each contract will represent a gameplay instance. \r\ncontract HollyRollyPolly is Tokencreation{\r\n    using SafeMath for uint;\r\n    \r\n    \r\n    enum GameState{NOTSTARTED, INPROGRESS, ENDED}\r\n    //address payable owner;\r\n    //address payable[] public currPlayerList; //This list will contain players that are in lobby. \r\n    address payable[] partcipatinglist; //This list will contain players that are participating in the bet. \r\n    address payable[] temp_participatinglist; //This list will contain temp players that are participating in the bet. \r\n    address payable[] winnerlist;\r\n    uint roomLimit = 3;\r\n    uint tokenpot;\r\n    uint counter=1;\r\n    uint betFixed = 0;\r\n    uint startTime;\r\n    uint deadTime;\r\n    GameState state = GameState.NOTSTARTED;\r\n    \r\n    // constructor(address newOwner) public{\r\n    //     owner() = payable(newOwner);\r\n    // }\r\n    \r\n    event randomStart();\r\n    event playerParticipate(address player, uint betAmount, uint guessNumber);\r\n    event distributeWinnings(address player, uint winnings);\r\n    event earnings(address player, uint winnings);\r\n    event playerLeft(address player, bool participate);\r\n    \r\n    modifier tempListClear(){\r\n        if(temp_participatinglist.length!=0){\r\n            delete temp_participatinglist;\r\n        }\r\n        if(temp_globallist.length!=0){\r\n            delete temp_globallist;\r\n        }\r\n        _;\r\n    }\r\n    \r\n    // //Join room function has been implemented here since we cannot modify other contract state from factory. \r\n    // function joinRoom() public{ //Run this first before any other step. \r\n    //     require(currPlayerList.length < roomLimit, \"Room is full. Please join another room or wait.\");\r\n    //     currPlayerList.push(msg.sender);\r\n    // }\r\n    \r\n    function rndGenerate(uint mod) internal returns(uint){\r\n        counter++; //Cannot be view since we are modifying sth in the function.\r\n        emit randomStart();\r\n        return uint(keccak256(abi.encodePacked(counter, block.timestamp, block.difficulty, msg.sender))) % mod;\r\n    }\r\n    \r\n    function changeRmOwner(address newOwner) public onlyOwner{\r\n        require(!playerinfo[payable(newOwner)].userparticipate, \"The new owner cannot participate in-game. Ensure that bet is removed before switching owner.\");\r\n        transferOwnership(newOwner);\r\n    }\r\n    \r\n    function removeBet() public tempListClear{\r\n        require(playerinfo[msg.sender].userparticipate,\"Cannot remove bet if user not in game\");\r\n        tokenpot = tokenpot.sub(playerinfo[msg.sender].bettokens);\r\n        playerinfo[msg.sender].totaltokens=playerinfo[msg.sender].totaltokens.add(playerinfo[msg.sender].bettokens);\r\n        playerinfo[msg.sender].bettokens = 0;\r\n        playerinfo[msg.sender].selectednr= 0;\r\n        playerinfo[msg.sender].userparticipate=false;\r\n        for (uint i=0; i<partcipatinglist.length; i++){\r\n            address payable userAddress=partcipatinglist[i];\r\n            if (userAddress!=msg.sender){\r\n                temp_participatinglist.push(userAddress);  \r\n            }\r\n        }\r\n        partcipatinglist=temp_participatinglist;\r\n    }\r\n    \r\n    //Banker is not inclusive of no. of players. They either win all of players bet or win nth. \r\n    function participate(uint _nroftokens, uint _numselected) public payable {\r\n        require(msg.sender != owner(), \"Room owner cannot participate in a bet.\");\r\n        require(betFixed == 0 || _nroftokens == betFixed, \"Please bet tokens according to the bet allocated to room.\");\r\n        require(_nroftokens>0,\"Need to bet more than 0\");\r\n        require(!playerinfo[msg.sender].userparticipate,\"Player is already inside the game\");\r\n        require(playerinfo[msg.sender].totaltokens>= _nroftokens,\"You have bet more tokens than you have in your account\");\r\n        require(_numselected>=1 && _numselected<=6,\"Choose a number from 1 to 6\");\r\n        if(betFixed == 0){ //Set the base template bet of the room.\r\n            betFixed = _nroftokens;\r\n            startTime=block.timestamp;\r\n            deadTime=startTime+30 minutes;\r\n        }\r\n        partcipatinglist.push(msg.sender);\r\n        playerinfo[msg.sender].bettokens=_nroftokens;\r\n        playerinfo[msg.sender].selectednr=_numselected;\r\n        tokenpot=tokenpot.add(_nroftokens);\r\n        playerinfo[msg.sender].totaltokens=playerinfo[msg.sender].totaltokens.sub(_nroftokens);\r\n        playerinfo[msg.sender].userparticipate=true;\r\n        emit playerParticipate(msg.sender, _nroftokens, _numselected);\r\n    }\r\n    \r\n    function leave() public payable tempListClear{\r\n        require(msg.sender!=owner(),\"The Owner cannot leave the lobby\");\r\n\r\n       //Common code whether in game or not in game \r\n        //remove from globallist (using a crude for loop method because pop functionality in solidity cannot pop specified element)\r\n        for (uint j=0; j<globallist.length; j++){\r\n            address payable userAddress=globallist[j];\r\n            if (userAddress!=msg.sender){\r\n            temp_globallist.push(userAddress);  \r\n            }\r\n        }\r\n        globallist=temp_globallist;\r\n        //isChanged part fix\r\n        changes[msg.sender].isChanged = false;\r\n        \r\n        //User already inside the game \r\n       if (playerinfo[msg.sender].userparticipate==true){\r\n        removeBet();\r\n        emit playerLeft(msg.sender,true); \r\n       }\r\n       \r\n       //User not in game\r\n       else{\r\n         TokentoEther(playerinfo[msg.sender].totaltokens);\r\n         emit playerLeft(msg.sender,false); \r\n       }\r\n        \r\n        \r\n    }\r\n    \r\n    function dispPartListSize() public view returns (uint){\r\n        return partcipatinglist.length;\r\n    }\r\n    \r\n    // function dispRoomOccupancy() public view returns(uint){\r\n    //     return currPlayerList.length;\r\n    // }\r\n    \r\n    //Gives the addressess of the participants (fyi NOT globallist) \r\n    function displayPartList() public view returns (address payable[] memory){\r\n        return partcipatinglist;\r\n    }\r\n    \r\n    //function check() public view returns(uint){\r\n        //return playerinfo[msg.sender].bettokens;\r\n    //}\r\n    \r\n    function potsize() public view returns (uint){\r\n        return tokenpot;\r\n    }\r\n    \r\n    //Only owner can start the game...\r\n    function gameplay() public payable onlyOwner{\r\n        //remember to change settings, currently set for debugging purposes \r\n        require(partcipatinglist.length>=1,\"Not enough players\");\r\n        require(state == GameState.NOTSTARTED, \"Game is either in progress or has ended. Please start a new game.\");\r\n        state = GameState.INPROGRESS;\r\n        //uint answer = rndGenerate(6) + 1;\r\n        uint answer = 2;\r\n        \r\n        uint winnertottokens;\r\n        for (uint i=0; i<partcipatinglist.length;i++){\r\n            address payable playerAddress=partcipatinglist[i];\r\n            if (playerinfo[playerAddress].selectednr==answer){\r\n                winnerlist.push(playerAddress);\r\n                winnertottokens+=playerinfo[playerAddress].bettokens;\r\n            }\r\n        }\r\n        if (winnerlist.length==0){\r\n            for (uint i=0; i<globallist.length;i++){\r\n            address payable playerAddress=globallist[i];\r\n                if (playerinfo[playerAddress].totaltokens>0){\r\n                    playerAddress.transfer(playerinfo[playerAddress].totaltokens*1 ether);\r\n                }\r\n            }\r\n        }\r\n        else{\r\n           uint payout = tokenpot / winnerlist.length;\r\n           for (uint j=0; j<winnerlist.length; j++){\r\n              address payable winnerAddress=winnerlist[j];\r\n              //uint payout=(tokenpot/winnertottokens)*playerinfo[winnerAddress].bettokens;\r\n              tokenpot=tokenpot.sub(payout);\r\n              playerinfo[winnerAddress].totaltokens=playerinfo[winnerAddress].totaltokens.add(payout);\r\n           } \r\n           //if (tokenpot!=0){\r\n           //   playerinfo[payable(owner())].totaltokens=playerinfo[payable(owner())].totaltokens.add(tokenpot);\r\n           //   tokenpot=0;\r\n           //}\r\n           \r\n            for (uint i=0; i<globallist.length;i++){\r\n                address payable playerAddress=globallist[i];\r\n                if (playerinfo[playerAddress].totaltokens>0){\r\n                    playerAddress.transfer(playerinfo[playerAddress].totaltokens*1 ether);\r\n                }\r\n            }\r\n        }\r\n        state = GameState.ENDED;\r\n        selfdestruct(payable(owner()));\r\n    }\r\n    \r\n    //function startTimeCheck() public view returns (uint){\r\n    //    return startTime;\r\n    //}\r\n    \r\n    function contractExpiry() public payable onlyOwner{\r\n        require(block.timestamp>startTime+30 minutes && startTime!=0 ,\"Contract has not expired\");\r\n        for (uint i=0; i<globallist.length;i++){\r\n            address payable playerAddress=globallist[i];\r\n            if (playerinfo[playerAddress].totaltokens>0){\r\n                playerAddress.transfer(playerinfo[playerAddress].totaltokens*1 ether);\r\n            }\r\n        }\r\n        selfdestruct(payable(owner()));\r\n    }   \r\n}",
  "sourcePath": "C:/Users/songs/Desktop/Solidity_Lab/contracts/Factory.sol",
  "compiler": {
    "name": "solc",
    "version": "0.7.0+commit.9e61f92b.Emscripten.clang"
  },
  "schemaVersion": "3.3.3",
  "updatedAt": "2021-01-03T08:10:09.163Z",
  "networkType": "ethereum",
  "devdoc": {
    "kind": "dev",
    "methods": {},
    "version": 1
  },
  "userdoc": {
    "kind": "user",
    "methods": {},
    "version": 1
  }
}